:1000000029EF1EF08C841200046ED8CF05F0E0CFEB
:1000100006F00001E9CF0CF0EACF07F0E1CF08F0DD
:10002000E2CF09F0D9CF0AF0DACF0BF0F3CF12F01C
:10003000F4CF13F0FACF14F0F5CF15F0F6CF16F099
:10004000F7CF17F000C00EF001C00FF002C010F0A3
:1000500003C011F0F2A830EF00F0F2B260EF02F04E
:100060000EC000F00FC001F010C002F011C003F08C
:100070000CC0E9FF07C0EAFF078E08C0E1FF09C016
:10008000E2FF0AC0D9FF0BC0DAFF12C0F3FF13C0B2
:10009000F4FF14C0FAFF15C0F5FF16C0F6FF17C035
:1000A000F7FF045006C0E0FF05C0D8FF1000F76A54
:1000B000BE0FF66E000EF7220900F5501200280C54
:1000C0000106F76AD20FF66E000EF7220900F5500E
:1000D00012002F61612E776176000D0A2D2D257398
:1000E0002D2D00000D0A0D0A202020202020202088
:1000F00020000D0A0D0A2D2D4641542053746174C1
:10010000732D2D0D0A0046697273742046415420E8
:100110007374617274732061743A203078256C585E
:100120000D0A00004461746120537461727473207D
:1001300041743A203078256C580D0A00526F6F7464
:10014000204469726563746F727920497320417429
:100150003A203078256C580D0A0042797465732076
:1001600050657220436C75737465723A203078253F
:100170006C580D0A00000D0A0D0A2D2D00002049B3
:100180006E666F2D2D000D0A41747472696275746C
:1001900065733A203078255800000D0A4372656176
:1001A0007465643A20000D0A4D6F64696669656480
:1001B0003A2000000D0A5374617274696E672063FF
:1001C0006C75737465723A20256C58000D0A53746F
:1001D000617274696E6720616464726573733A203A
:1001E000256C58000D0A53697A653A20256C7520F4
:1001F00042797465730D0A000301CB6B93968A866E
:1002000000009388CB9181B8CB81938ACB9381BA3C
:10021000CB83938CCB9581BCCB85938ECB9781BEC2
:10022000CB8793968A96CBC301F00001120093947A
:100230008A840000E1DF01C0CAF3DEDF01C0C9F338
:100240000301CA39006EF00E00160050C911016E8C
:10025000000112000301CAB102D08A9801D08A8835
:100260009398CAB302D08A9A01D08A8A939ACAB55F
:1002700002D08A9C01D08A8C939CCAB702D08A9EF5
:1002800001D08A8E939E000093968A86070E006E98
:10029000002EFED700D093968A960001120093920A
:1002A0008A92C5DF01C0C9F3030101AE02D000018B
:1002B000F8D7C75303E093928A8202D093928A922E
:1002C000000093948A94000093968A96C839C96F67
:1002D0000F0EC917C9C3CAF30001BCDF0301C8511F
:1002E0000F0BC96FCA6F0001B5DF12000301C42DE7
:1002F00001D003D0400EC56F01D0C56B010EC35DA8
:10030000C527C5518009C66FC76BC86F0001C7DF1D
:100310001200030EEA6EC30EE96EEF500EE00F0EF0
:10032000016E006A002EFED7012EFBD78F0E006EE5
:10033000002EFED70000EF2EF2D712000301C251AB
:100340000C0A000105E0060A0FE0020A15E01BD0C6
:100350000301C76B010EC86F0001A1DF020E03018C
:10036000C36F0001D6DF16D0010E0301C36F020E6A
:10037000C46F0001BBDF0ED00301C76B100EC86F46
:1003800000018DDF07D0010E0301C76FC2C3C8F3A0
:10039000000185DF1200EACFC1F3E9CFC0F303010A
:1003A000BAAF08D0C08FC0A9C02BB91FBA1FB92BD4
:1003B000D8B4BA2BBA39F009BC6FBC27E20FBD6FB5
:1003C000320FBF6FBA510F0BBD27BD27BF27E90FF3
:1003D000BE6FBE27BE27B9390F0BBE27BF27BE375A
:1003E000BF37BF1FBF37B9510F0BBF27BC37070E31
:1003F000BB6F0A0EBE07BF27FDE3BD07BE27FDE3A7
:10040000BC07BD27FDE3BB07BC27FDE3030EEA6E77
:10041000BB0EE96E070EC015C09DED52C01507E179
:10042000C0B9EE52C0B903D0200E006E21D0E9262B
:10043000000EEA22E950BF0804E1EA50030801E196
:10044000C08DEF50006E08E1C0BD06D0C0B91DD010
:10045000C0B702D0200E0BD0C0AF06D02D0E006E5C
:10046000ED50C09DC09F04D0C087C099300E0026BB
:10047000EACFBAF3E9CFB9F300C0C2F300015EDFFF
:10048000BAC3EAFFB9C3E9FF0301EE50C0ADD2D74A
:1004900000017AEF02F00900F6CFBAF3F7CFBBF311
:1004A000F5CFC2F34BDFBAC3F6FFBBC3F7FF0301BF
:1004B000B92F01D002D00001EED7000183EF02F086
:1004C00092908970070E0301C36F020EC46F000182
:1004D0000DDF010E02014327000E4423280E030105
:1004E000C26F00012BDF100EE96E44C2BAF343C2A3
:1004F000B9F351D7100EF66E050EF76E070E030115
:10050000B96F0001C8D7F29230EF00F028254C6493
:10051000206B65736D65290046617420284F6B2937
:1005200000004D757A696B20284F6B2900004D55EE
:100530005A494B2043414C49594F522E2E2E000010
:1005400020202020202020202020202020202020AB
:1005500000004D757A696B2028486174612900009C
:1005600046617420284861746129000093928A9240
:1005700093948A9493968A96196AF2BE198EF29E83
:100580000F0E0301C36F0001C4DE19BEF28E02011B
:10059000916B9151020819E3196AF2BE198EF29E0D
:1005A000030E0301CA6F000155DE19BEF28E196AEF
:1005B000F2BE198EF29E050E0301C36F0001A9DE83
:1005C00019BEF28E0201912BE4D7196AF2BE198E80
:1005D000F29E020E0301CA6F00013CDE19BEF28ECC
:1005E0000201916B9151030814E3036A91510001D8
:1005F0005EDD0201926F196AF2BE198EF29E03014E
:10060000C76BC86F00014BDE19BEF28E0201912B41
:10061000E9D700017DEF1EF00301B351080804E0A3
:10062000B46FB237B42FFDD78C88B3C3B4F38C98B2
:100630000000B2AF8C96B2BF8C86B2378C88013680
:1006400083AA019083BA0180B42FF1D7000130EF63
:1006500003F0B1C3B2F3080E0301B36F0001DCD79E
:10066000015012008C9412000301B76BB46BB351AC
:10067000B45D1DE2B1C3E9FFB2C3EAFFEFCFB6F349
:10068000B56BB55107080CE3D890B737B651B71919
:10069000800B02E0090EB71BD890B637B52BF1D707
:1006A000B79FB451B42BB12BD8B4B22BE0D7D880BC
:1006B000B737B7C301F0000176EF03F00301A6518D
:1006C0004009AB6FAAC3ACF3A9C3ADF3A8C3AEF3A3
:1006D000A7C3AFF302011AA10DD0030E0301B26F3D
:1006E000AB0EB16F050EB36F0001BED701C0B0F302
:1006F00004D002010301B0690001ABC3B1F3A9DF6B
:10070000ACC3B1F3A6DFADC3B1F3A3DFAEC3B1F3A6
:10071000A0DFAFC3B1F39DDFB0C3B1F39ADF000E2A
:10072000016E12000301A66BA769A7530EE0B16921
:1007300000018FDF01C0A6F30301A63D01D003D065
:10074000A6C301F004D0A707F0D7800E016E000108
:1007500012000301A66BAA6BA96BA86BA76B000123
:10076000ADDFE0DF01501200010E0301A66FAA6B9E
:10077000A96BA86BA76B0001A1DFD4DF015043EF89
:1007800005F0040E0201BD25016E000EBE21036EB0
:1007900001C0C0F2C16F0001C5DFC1C2EAFFC0C223
:1007A000E9FF01C0EFFF0201BF6BBF51030818E36F
:1007B000030ED880BF55BD25016E000EBE21036E0D
:1007C00001C0C0F2C16F0301B169000142DFC1C2C3
:1007D000EAFFC0C2E9FF01C0EFFF0201BF2BE5D76E
:1007E000040EBD25E96E000EBE21EA6EEFCF01F0CA
:1007F00000011200080E0301A66FAA6BA96B010E7F
:10080000A86FAA0EA76F000159DFBAC2BEF2B9C223
:10081000BDF2B7DF015073EF05F0370E0301A66F8D
:10082000AA6BA96BA86BA76B000148DF7BDF0150A7
:1008300082EF05F0290E0301A66F400EAA6FA96B87
:10084000A86BA76B00013ADF6DDF015085EF05F063
:10085000BCC2BEF2BBC2BDF294DF01503EEF04F059
:100860003A0E0301A66FAA6BA96BA86BA76B0001D8
:1008700025DFBAC2BCF2B9C2BBF2EAD70150B0EF71
:1008800005F0100E0301A66FBCC2AAF3BBC2A9F308
:10089000BAC2A8F3B9C2A7F3000110DF43DF0150C9
:1008A000C8EF05F03B0E0301A66FAA6BA96BA86BFE
:1008B000B9C2A7F3000102DF02011A91B9B11A818E
:1008C000000130DF0150D8EF05F0110E0301A66FD3
:1008D000A5C3AAF3A4C3A9F3A3C3A8F3A2C3A7F310
:1008E0000001ECDE1FDF01508FEF04F01BDF01C0C1
:1008F000A3F30301A251A35D03E1000E016E02D038
:10090000A3C301F000019FEF04F0ACDE9AC3A5F38E
:1009100099C3A4F398C3A3F397C3A2F3D6D701C096
:100920009FF303019F5307E0000102EC00F0030175
:100930009FC301F03DD0FE0EA26F0001D7D701C0CA
:100940009FF303019F5307E0000102EC00F0030155
:100950009FC301F02DD0A16BA06BA1519C5D1CE346
:1009600003E19B51A05D18E29D51A025016E9E51AF
:10097000A121036E01C0A2F3A36FB169000169DE7A
:10098000A3C3EAFFA2C3E9FF01C0EFFF010E030109
:10099000A027000EA123E1D7B16900015ADE0301AF
:1009A000B169000156DE02EC00F0000E016E030199
:1009B0000001EEEF04F002011A931EC29AF31DC269
:1009C00099F31CC298F31BC297F3020E03019C6FAC
:1009D0009B6B9E6B1A0E9D6F000197D70150120002
:1009E00002011A811E6B1D6B1C6B1B6B95949598F5
:1009F0009596958A000102EC00F0196AF2BE198EF4
:100A0000F29EFA0E0301C36F000183DC19BEF28E61
:100A10000201B36BB351090807E30301B169000197
:100A200018DE0201B32BF6D7B36B196AF2BE198E2A
:100A3000F29E010E0301C36F00016BDC19BEF28E42
:100A400011DE87DE01C0B4F202EC00F00201B32B2C
:100A5000B33D09D0B45304E1010E016EB3D003D00D
:100A6000B4C201F0AFD0B42DE0D7B36B196AF2BEB7
:100A7000198EF29E010E0301C36F00014ADC19BEFC
:100A8000F28EF0DD71D601C0B4F202EC00F002018A
:100A9000B32BB4A102D0B33DE9D7B33D2FD0196A2F
:100AA000F2BE198EF29E640E0301C36F000131DCA9
:100AB00019BEF28ED7DD4DDE01C0B4F202EC00F0BB
:100AC000196AF2BE198EF29E640E0301C36F000113
:100AD00020DC19BEF28EC6DD020E0201BA6FB50E21
:100AE000B96F000187D601C0B4F202EC00F0020138
:100AF000B42D01D003D0B4C201F064D0B36B0001B7
:100B0000B1DD8BD601C0B4F295D601C0B4F202ECCF
:100B100000F0196AF2BE198EF29E640E0301C36FD3
:100B2000000189EC01F019BEF28E0201B32BB42D45
:100B300002D0B33DE4D7B42D03D0B4C201F042D00B
:100B4000B451040802E11F6B19D0010E1F6F0001A0
:100B500089DD020E0201BA6FB50EB96F000180D6B1
:100B600001C0B4F202EC00F00201B451040806E046
:100B7000B8C2B4F2B4AD02D0020E1F6F000172DD34
:100B80000201BC6BBB6B020EBA6FB96B000179D668
:100B900001C0B4F202EC00F00201B45303E0B4C2AD
:100BA00001F010D000015EDD0201B96B00017AD6C0
:100BB00001C0B4F202EC00F0FEDE01C0B4F2000E9F
:100BC000016E0201000172EF07F0180E0301A66F1B
:100BD000A5C3AAF3A4C3A9F3A3C3A8F3A2C3A7F30D
:100BE00000016CDD9FDD015000EF06F03BDD9AC394
:100BF000A5F399C3A4F398C3A3F397C3A2F3E5D7CE
:100C000001C09FF303019F5307E0000102EC00F0D5
:100C100003019FC301F040D0FE0EB16F000119DD4A
:100C20000301A16BA06BA1519C5D14E303E19B51F7
:100C3000A05D10E29D51A025E96E9E51A121EA6EB2
:100C4000EFCFB1F3000105DD010E0301A027000E77
:100C5000A123E9D7B1690001FCDC0301B1690001FE
:100C6000F8DC60DD01C09FF303019F510A0B07E030
:100C7000000102EC00F003019FC301F00DD0B16947
:100C80000001E7DC0152D8A402D00301F8D702EC3E
:100C900000F0000E016E0301000164EF06F0020196
:100CA0001AA315D01A931EC29AF31DC299F31CC23F
:100CB00098F31BC297F3020E03019C6F9B6B9E6B14
:100CC0001A0E9D6F000192D7015004D00201000E50
:100CD000016E000112000301926B02011F51020814
:100CE0000BE1D8900301966B9131956F9031946F21
:100CF0008F31936F13D0020103018F51010B016EED
:100D0000026A036A8E518E5D936F01508F59946F02
:100D100002509059956F03509159966F935102016B
:100D20001B5D0FE10301945102011C5D0AE1030107
:100D3000955102011D5D05E10301965102011E5D01
:100D40001BE01AA30CD00001AADF01C092F303013B
:100D5000925303E092C301F012D002011A9396C39A
:100D60001EF295C31DF294C31CF293C31BF2000143
:100D700022DE01C092F30201030192C301F00001DF
:100D8000120073C391F372C390F371C38FF370C3F6
:100D90008EF3A1DF01C076F30301765303E076C33F
:100DA00001F015D07151010B7A6F7B6B7C6B1A0EC1
:100DB0007025E96E000E7A21EA6EEFCF7DF375C3E0
:100DC000EAFF74C3E9FF7DC3EFFF000E016E00016F
:100DD0001EEF07F00301696B686B6951645D3AE3CC
:100DE00003E16351685D36E262C373F361C302F0ED
:100DF00060C301F05FC300F0010E5F27D8B0602B25
:100E0000D8B4612BD8B4622B02C06CF301C06BF371
:100E100000C06AF366C303F06551652BD8B4662B36
:100E20006E6F03C06FF302C072F301C071F300C0B4
:100E300070F303C075F3746F0001A3D701C067F3AB
:100E40000301675303E067C301F006D0682BD8B4F1
:100E5000692BC3D7000E016E000112000201B351CD
:100E6000B503F3CF01F0F4CF00F0B603F350002642
:100E7000B451B503F3500020026E000107EF09F0F2
:100E80000301846B856B010E866FDA6AD96A030EE3
:100E9000896F7C0E886F030EEA6E800EE96E89C33F
:100EA000E2FF88C3E1FF86C387F3D890E550EE02E6
:100EB000F3508423F4508523872FF7D784C3DEFFB4
:100EC00085C384F3856BD8B0852B882BD8B4892B48
:100ED000862B86510508DFE1000112000201916BAB
:100EE00000017ED5015203E0FF0E016E0BD203011B
:100EF000626B616B010E606FBE0E5F6F646B010E03
:100F0000636F020E666FA60E656F000163DF01500E
:100F1000020191270301626B616B010E606FC60EC7
:100F20005F6F646B040E636F020E666FAF0E656FCA
:100F3000000150DF0150020191270301626B616BD8
:100F4000010E606FCA0E5F6F646B040E636F020E5A
:100F5000666FAB0E656F00013DDF01500201912706
:100F6000A6517F0B11E1AE5307E1AD5305E1AC5340
:100F700003E1AB51630808E2AF530BE1B05309E161
:100F8000B15307E1B25305E1AA6BA96BA86BA76B3C
:100F900008D0D890A76BAF35A86FB035A96FB13521
:100FA000AA6F0B0EA725B36F000EA821B46F000E19
:100FB000A921B56F000EAA21B66FE8CF62F3B5C2C2
:100FC00061F3B4C260F3B3C25FF30301646B020E5A
:100FD000636F666F940E656F0001FCDE01500201C5
:100FE00091270D0EA725B36F000EA821B46F000E38
:100FF000A921B56F000EAA21B66FE8CF62F3B5C282
:1010000061F3B4C260F3B3C25FF30301646B010E1A
:10101000636F020E666F930E656F0001DBDE015099
:10102000020191270E0EA725B36F000EA821B46F01
:10103000000EA921B56F000EAA21B66FE8CF62F3AA
:10104000B5C261F3B4C260F3B3C25FF30301646B72
:10105000020E636F666F960E656F0001BBDE015076
:1010600002019127100EA725B36F000EA821B46FBF
:10107000000EA921B56F000EAA21B66FE8CF62F36A
:10108000B5C261F3B4C260F3B3C25FF30301646B32
:10109000010E636F020E666F920E656F00019ADE9D
:1010A000015002019127130EA725B36F000EA8214E
:1010B000B46F000EA921B56F000EAA21B66FE8CF5C
:1010C00062F3B5C261F3B4C260F3B3C25FF303016C
:1010D000646B020E636F666F980E656F00017ADEB7
:1010E000015002019127240EA725B36F000EA821FD
:1010F000B46F000EA921B56F000EAA21B66FE8CF1C
:1011000062F3B5C261F3B4C260F3B3C25FF303012B
:10111000646B040E636F020E666FA20E656F0001B2
:1011200059DE0150020191271C0EA725B36F000E56
:10113000A821B46F000EA921B56F000EAA21B66FC9
:10114000E8CF62F3B5C261F3B4C260F3B3C25FF338
:101150000301646B040E636F020E666F9A0E656F77
:10116000000138DE015002019127200EA725B36F40
:10117000000EA821B46F000EA921B56F000EAA21A0
:10118000B66FE8CF62F3B5C261F3B4C260F3B3C225
:101190005FF30301646B040E636F020E666F9E0EB5
:1011A000656F000117DE015002019127EC0EA725A3
:1011B000B36F030EA821B46F000EA921B56F000E06
:1011C000AA21B66FE8CF62F3B5C261F3B4C260F38F
:1011D000B3C25FF30301646B040E636F020E666FAC
:1011E000300E656F0001F6DD015002019127915329
:1011F00005E0FF0E016E000185D00201B46B93C2C1
:10120000B3F295C2B6F294C2B5F2000127D602C07D
:1012100023F201C022F294C200F095C201F0026AEA
:10122000036A03C0B6F202C0B5F295C2B4F294C22A
:10123000B3F2A5C27FF3A4C27EF3A3C27DF3A2C220
:101240007CF303C083F302C082F395C281F394C29E
:1012500080F316DE03C02FF202C02EF201C02DF281
:1012600000C02CF20201B66BB56B97C2B4F296C205
:10127000B3F2B6C27FF3B5C27EF397C27DF396C2D6
:101280007CF30301836B826B95C281F394C280F37C
:101290000001F6DD00500201A725246F0150A821AE
:1012A000256F0250A921266F0350AA21276F030141
:1012B0007F6B7E6B7D6B92C27CF32FC283F32EC259
:1012C00082F32DC281F32CC280F30001D9DD0050DE
:1012D00002012425346F01502521356F025026214B
:1012E000366F03502721376F22513425286F235141
:1012F0003521296F000E36212A6F000E37212B6F02
:10130000000E016E0001A0EF1EF00900F55213E07F
:10131000F6CF91F2F7CF92F2196AF2BE198EF29ED1
:10132000F5CFC2F39EEC01F019BEF28E91C2F6FF2A
:1013300092C2F7FFEAD712003DC33FF33CC33EF32E
:101340003FC303F003013EC3E9FF3FC3EAFFEF528F
:1013500006E03E2BD8B43F2B0001F2D703013C51ED
:101360003E5D006E3D513F59036E00C001F0026EBC
:101370000001120003013B6B3A6B3A510A083BE350
:101380003A5132253C6F000E33213D6F000E34215F
:101390003E6F000E35213F6F626F3EC361F33DC368
:1013A00060F33CC35FF3646B010E636F030E666F03
:1013B000390E656F00010EDD015203E0FF0E016E74
:1013C00072D003013951200813E03B513625E96EF4
:1013D000000E3721EA6E3951400806E239515A08A9
:1013E00003E33951200901D03951EF6E010E3B273B
:1013F000010E3A27C2D73B513625E96E000E372140
:10140000EA6EEF6A3851100844E037C33DF336C343
:101410003CF3000191DF02C03DF301C03CF3030146
:101420003D5303E13C51030834E237C33DF336C377
:101430003CF3000181DF01C03BF33BC33AF3030EF1
:1014400003013B5D3A5D1DE01CE33A513625016E18
:10145000000E3721036E01C03CF33D6F010E3A5D73
:101460003625E96E000E3721EA6EEFCF3EF303C05A
:10147000EAFF01C0E9FF3EC3EFFF3A070001DFD7F3
:1014800003013A513625E96E000E3721EA6E2E0E21
:10149000EF6E010E3B253625E96E000E3721EA6E10
:1014A000EF6A000E016E00010EEF0DF0D8B204D00D
:1014B000030EEA6E520EE96E006A016A026A036A5E
:1014C0000301526B536B546B556B515150114F11BB
:1014D0004E112CE0200E566FD8904A374B374C37C0
:1014E0004D3752375337543755375151555D08E111
:1014F0005051545D05E14F51535D02E14E51525D33
:101500000FE34E51525F4F51D8A04F3D535F5051A2
:10151000D8A0503D545F5151D8A0513D555FD8805F
:101520000036013602360336562FD6D752C3EFFFA8
:1015300053C3ECFF54C3ECFF55C3ECFF0001120092
:10154000020134510301425D466F0201355103012E
:101550004359476F0201365103014459486F020154
:10156000375103014559496FD8924D6F48C34CF329
:1015700047C34BF346C34AF3516B506B23C24FF33F
:1015800022C24EF3000192DF03C049F302C048F3C8
:1015900001C047F300C046F3020E03010024006EB1
:1015A000000E0120016E000E0220026E000E0320CC
:1015B000036E000112000301436B426B416B010E8D
:1015C000406F476B466B456B446B3EC3E9FF3FC3BF
:1015D000EAFFEFCF00F0ECCF01F0ECCF02F0ECCF60
:1015E00003F00050445D09E10150455D06E1025001
:1015F000465D03E10350475D3DE0010E4027000ECC
:101600004123422343234035496F41354A6F4235D8
:101610004B6F43354C6F49374A374B374C37FC0ECD
:1016200049170201245103014927020125510301F1
:101630004A230201265103014B23020127510301D2
:101640004C234CC362F34BC361F34AC360F349C3F9
:101650005FF3646B040E636F030E666F440E656F79
:101660000001EAEC06F0015203E0FF0E016E10D01B
:101670000301ABD73EC3E9FF3FC3EAFF40C3EFFF1F
:1016800041C3ECFF42C3ECFF43C3ECFF000E016E0D
:1016900000013FEF0CF0020E0301745D006E000EBE
:1016A0007559016E000E7659026E000E7759036E61
:1016B0007B6F02C07AF301C079F300C078F37F6BCF
:1016C0007E6B23C27DF322C27CF3836F02C082F360
:1016D00001C081F300C080F3000140EC07F002017B
:1016E000345100263551012236510222375103224E
:1016F0000001120039C303F0030138C3E9FF39C305
:10170000EAFFEFCF3EF3ECCF3FF3ECCF40F3ECCF6B
:1017100041F341510201375D15E311E103014051ED
:101720000201365D0FE30BE103013F510201355D1C
:1017300009E305E103013E510201345D03E3000EBC
:10174000016EF8D039C303F038C3E9FF39C3EAFFAB
:10175000EFCF3EF3ECCF3FF3ECCF40F3ECCF41F3D0
:101760000201285103013E5F0201295103013F5B41
:1017700002012A510301405B02012B510301415B2D
:10178000EACF43F3E9CF42F3D882030EEA6E440E68
:10179000E96E41C34DF340C34CF33FC34BF33EC32B
:1017A0004AF3516B506B23C24FF322C24EF3000138
:1017B0007DDE44C300F045C301F046C302F047C3D9
:1017C00003F043C3EAFF42C3E9FF47C341F346C303
:1017D00040F345C33FF344C33EF303013E53D8A453
:1017E0008DD03F53D8A48AD04053D8A487D041533A
:1017F000D8A484D039C303F038C3E9FF39C3EAFF62
:10180000EFCF3EF3ECCF3FF3ECCF40F3ECCF41F31F
:1018100002012B510301415DD8A070D011E10201FA
:101820002A510301405D6AE30BE1020129510301E2
:101830003F5D64E305E10201285103013E5D5EE383
:1018400039C303F038C3E9FF39C3EAFFEFCF42F3EE
:10185000ECCF43F3ECCF44F3ECCF45F3000170DE63
:1018600003C03DF302C03CF301C03BF300C03AF3B8
:10187000030E03013F6F3A0E3E6F00019CD60150EC
:10188000FF0805E1FF0E016E020154D0000139C3CB
:1018900003F038C33EF339C33FF33DC377F33CC392
:1018A00076F33BC375F33AC374F30001F4DE03C06F
:1018B00043F302C042F301C041F300C040F3010E04
:1018C0000201225D006E000E2359036E00500301D9
:1018D0004025006E03500120016E000E0220026EB2
:1018E000000E43213FC3EAFF3EC3E9FF00C0EFFF04
:1018F00001C0ECFF02C0ECFFEC6E19D038C3E9FF69
:1019000039C3EAFF010EEF5C006E000EEC58016E69
:10191000000EEC58026E000EEC58ED52ED52ED52F6
:1019200000C0EFFF01C0ECFF02C0ECFFEC6E000E48
:10193000016E02010001B6EF0CF0030132C3E9FFB2
:1019400033C3EAFFEFCF34F3ECCF35F3ECCF36F30C
:10195000ECCF37F31F0E345F000E355B365B375B21
:10196000030E396F340E386F0001C4D60150FF08E2
:1019700003E1FF0E016E0FD0030132C3E9FF33C351
:10198000EAFF34C3EFFF35C3ECFF36C3ECFF37C3C8
:10199000ECFF000E016E00011EEF0DF003012B6B3A
:1019A00027C331F326C330F325C32FF324C32EF30B
:1019B000150E2E5D326F000E2F59336F000E305909
:1019C000346F000E3159356F626F34C361F333C326
:1019D00060F332C35FF3646B010E636F030E666FD7
:1019E0002D0E656F0001EAEC06F0015203E0FF0ED8
:1019F000016E90D003012D510F081AE031C335F369
:101A000030C334F32FC333F32EC332F329C337F378
:101A100028C336F32DC338F30001ACD40150FF08BE
:101A200003E1FF0E016E76D0000E016E73D003014C
:101A3000030E336F2E0E326F00017FD70150FF0867
:101A400003E1FF0E016E66D0010E03012A6F2A51D9
:101A50001F083DE32A510B0803E10E0E2A6F05D043
:101A60002A511A0802E11C0E2A6F2A512E25326FC4
:101A7000000E2F21336F000E3021346F000E312104
:101A8000356F2B512825016E000E2921036E01C0F0
:101A900036F3376F35C362F334C361F333C360F396
:101AA00032C35FF3646B010E636F03C066F301C062
:101AB00065F30001EAEC06F0015203E0FF0E016E4F
:101AC00029D0020E03012A27010E2B27C0D731C3CC
:101AD00062F330C361F32FC360F32EC35FF3646B13
:101AE000010E636F030E666F2C0E656F0001EAEC4A
:101AF00006F0015203E0FF0E016E0CD003012CAD85
:101B000097D72B512825E96E000E2921EA6EEF6A3E
:101B1000000E016E000199EF16F0030124C3E9FFE6
:101B200025C3EAFFEFCF28F327C303F026C3E9FF5D
:101B300027C3EAFFEF50285D15E125C303F024C356
:101B4000E9FF03C0EAFFEF5203E1000E016E1FD070
:101B500025C303F02451242BD8B4252B262BD8B42D
:101B6000272BDCD725C303F024C3E9FF25C3EAFFF5
:101B7000EFCF28F327C303F026C3E9FF27C3EAFF0B
:101B8000EF50285D02E2FF0E01D0010E016E000150
:101B9000ADEF16F03EC303F003013DC3E9FF3EC3C2
:101BA000EAFFEFCF3FF3ECCF40F3ECCF41F3ECCFC4
:101BB00042F33F374037413742373F3740374137AD
:101BC0004237FC0E3F170201245103013F27020157
:101BD0002551030140230201265103014123020143
:101BE00027510301422342C362F341C361F340C35F
:101BF00060F33FC35FF3646B040E636F3EC366F331
:101C00003DC365F30001EAEC06F0015203E0FF0E6C
:101C1000016E02D0000E016E12008BC391F38AC3D5
:101C200090F389C38FF388C38EF36BEC06F001C089
:101C30008DF303018D5303E08DC301F012D0895160
:101C4000010B8F6F906B916B1A0E8825E96E000E59
:101C50008F21EA6E8CC3EFFF02011A83000E016E22
:101C60000301000167EF0EF00301826B816B82516B
:101C70007D5D39E303E17C51815D35E27BC38BF30C
:101C80007AC302F079C301F078C300F0010E78271F
:101C9000D8B0792BD8B47A2BD8B47B2B02C085F37B
:101CA00001C084F300C083F37FC303F07E517E2B19
:101CB000D8B47F2BE96E03C0EAFFEFCF8CF302C0EC
:101CC0008AF301C089F300C088F30001A6D701C0E0
:101CD00080F30301805303E080C301F006D0812B21
:101CE000D8B4822BC4D7000E016E0001120003018C
:101CF0004935526F4A35536F4B35546F4C35556FDC
:101D00005237533754375537FC0E521702012451BE
:101D100003015227020125510301532302012651D9
:101D200003015423020127510301552355C37BF3BB
:101D300054C37AF353C379F352C378F37D6B040E23
:101D40007C6F030E7F6F4D0E7E6F00018DDF0152A1
:101D500003E0FF0E016E02D0000E016E12002BC3D5
:101D60002FF32AC32EF329C32DF328C32CF32FC33B
:101D700033F32EC332F32DC331F32CC330F3030EF0
:101D800003013E6F300E3D6F000104DF0150FF087C
:101D900003E1FF0E016E35D02FC34CF32EC34BF37E
:101DA0002DC34AF32CC349F30301506B4F6B4E6BA9
:101DB0004D6B00019CDF0150FF0803E1FF0E016E37
:101DC00020D033C32FF332C32EF331C32DF330C3EE
:101DD0002CF303012C3D01D002D00001D0D72D3DC2
:101DE00001D002D00001CBD72E3D01D002D000019E
:101DF000C6D72F510F08D8B402D00001C0D7000EAB
:101E0000016E000139EF18F0040E03013225016E56
:101E1000000E3321036E01C034F3356F140E3225EA
:101E2000E96E000E3321EA6EEFCF00F0ECCF01F047
:101E3000ECCF02F0ECCF03F035C3EAFF34C3E9FF87
:101E400000C0EFFF01C0ECFF02C0ECFF03C0ECFFDD
:101E5000100E3225E96E000E3321EA6EEFCF00F04E
:101E6000ECCF01F0ECCF02F0ECCF03F033C3EAFF8C
:101E700032C3E9FF00C0EFFF01C0ECFF02C0ECFF7E
:101E800003C0ECFF00011FEF14F0030149C3E9FF99
:101E90004AC3EAFFEFCF5BF3ECCF5CF3ECCF5DF32B
:101EA000ECCF5EF35B375C375D375E375B375C37B3
:101EB0005D375E37FC0E5B170201245103015B2581
:101EC000536F0201255103015C21546F0201265119
:101ED00003015D21556F0201275103015E21566FF9
:101EE0005A6B596B586B576B5A5102012F5DD8A032
:101EF0008ED016E10301595102012E5DD8A087D082
:101F00000FE10301585102012D5DD8A080D008E1F6
:101F10002C510301575DD8A002D0020178D00201F4
:101F20000301575153255B6F585154215C6F595130
:101F300055215D6F5A5156215E6F626F5DC361F32B
:101F40005CC360F35BC35FF3646B040E636F030EEB
:101F5000666F4B0E656F0001EAEC06F0015203E07C
:101F6000FF0E016E57D04EC352F34DC351F34CC315
:101F700050F34BC34FF303014F5341E150533FE143
:101F800051533DE152533BE157515327585154238C
:101F9000595155235A51562349C3E9FF4AC3EAFF11
:101FA000020124510301535D5D6F020125510301BC
:101FB00054595E6F02012651030155595F6F0201AA
:101FC000275103015659606F6031036E5F31026E15
:101FD0005E31016E5D31006E033202320132003239
:101FE0003F0E031600C0EFFF01C0ECFF02C0ECFF84
:101FF00003C0ECFF000E016E00010CD00301040EC3
:102000005727000E582359235A236ED70201FF0E7B
:10201000016E000112004CC377F34BC376F34AC341
:1020200075F349C374F34BEC0BF003C073F302C0B8
:1020300072F301C071F300C070F303016D6B6D5159
:102040001F080BE3036A6D514D0FE96E030E032069
:10205000EA6EEF6A010E6D27F2D76F6B6E6B6F51F0
:102060000201235D32E308E1225103016E5DD8A035
:1020700002D002012AD0020103016E517025746F53
:102080006F517121756F000E7221766F000E7321F2
:10209000776F7B6F76C37AF375C379F374C378F384
:1020A0007D6B200E7C6F030E7F6F4D0E7E6F0001E7
:1020B000DBDD015203E0FF0E016E0AD0200E0301AA
:1020C0006E27000E6F23CBD70201000E016E0001B8
:1020D0001200040E03013525E96E000E3621EA6E6A
:1020E000EFCF38F3ECCF39F3ECCF3AF3ECCF3BF34F
:1020F0001F0E3817396B3A6B3B6B38536BE1395312
:1021000069E13A5367E13B5365E1040E3525E96E19
:10211000000E3621EA6EEFCF38F3ECCF39F3ECCF77
:102120003AF3ECCF3BF3140E3525E96E000E362161
:10213000EA6EEFCF00F0ECCF01F0ECCF02F0ECCF85
:1021400003F00050385D09E10150395D06E10250AD
:102150003A5D03E103503B5D3DE0040E3525E96E39
:10216000000E3621EA6EEFCF38F3ECCF39F3ECCF27
:102170003AF3ECCF3BF3200E385F000E395B3A5B4D
:102180003B5B1A0E3525016E000E3621036E01C031
:102190003CF33D6F3BC37BF33AC37AF339C379F326
:1021A00038C378F37D6B200E7C6F03C07FF301C0D2
:1021B0007EF3000159DD01520EE0190E03013525B1
:1021C000E96E000E3621EA6EEF504009EF6EFF0E09
:1021D000016E29D00001040E03013525E96E000EC1
:1021E0003621EA6EEFCF38F3ECCF39F3ECCF3AF388
:1021F000ECCF3BF31F0E3817396B3A6B3B6B1A0E63
:102200003825006E000E3921016E000E3A21000EB5
:102210003B2135510024E96E36510120EA6E37C367
:10222000EFFF000E016E000148EF13F038C303F01A
:10223000030137C3E9FF38C3EAFFEFCF3DF3ECCF2B
:102240003EF3ECCF3FF3ECCF40F3010E3D27000E01
:102250003E233F2340230201285103013D5F020139
:10226000295103013E5B02012A5103013F5B020138
:102270002B510301405BEACF42F3E9CF41F3D8820F
:10228000030EEA6E430EE96E40C34DF33FC34CF3B9
:102290003EC34BF33DC34AF3516B506B23C24FF324
:1022A00022C24EF3000156EC0AF043C300F044C3CF
:1022B00001F045C302F046C303F042C3EAFF41C345
:1022C000E9FF46C340F345C33FF344C33EF343C372
:1022D0003DF303013D53D8A48DD03E53D8A48AD0FA
:1022E0003F53D8A487D04053D8A484D038C303F038
:1022F00037C3E9FF38C3EAFFEFCF3DF3ECCF3EF33E
:10230000ECCF3FF3ECCF40F302012B510301405DD2
:10231000D8A070D012E102012A5103013F5DD8A07C
:1023200069D00BE10201295103013E5D63E305E140
:102330000201285103013D5D5DE338C303F037C35B
:10234000E9FF38C3EAFFEFCF42F3ECCF43F3ECCF22
:1023500044F3ECCF45F30001A0EC0AF003C03CF3DA
:1023600002C03BF301C03AF300C039F3030E03018E
:102370003E6F390E3D6F00010DDC0150FF0803E197
:10238000FF0E016E54D00301393D07D03A3D05D010
:102390003B3D03D03C3D01D009D0393D0CD03A3D06
:1023A0000AD03B3D08D03C510F0805E1FF0E016EFD
:1023B00000013DD0030138C303F037C33DF338C3F8
:1023C0003EF33CC377F33BC376F33AC375F339C3AB
:1023D00074F300014BEC0BF03EC3EAFF3DC3E9FF91
:1023E00000C0EFFF01C0ECFF02C0ECFF03C0ECFF38
:1023F0001CD0030137C3E9FF38C3EAFF010EEF2405
:10240000006E000EEC20016E000EEC20026E000E3D
:10241000EC20036EED52ED52ED5200C0EFFF01C013
:10242000ECFF02C0ECFFEC6E0001000E016E12002A
:102430003EC344F33DC343F33CC342F33BC341F3C8
:1024400044C348F343C347F342C346F341C345F390
:10245000030E03014A6F450E496F000116DD01505E
:10246000FF0803E1FF0E016E5BD044C34CF343C38E
:102470004BF342C34AF341C349F348C350F347C344
:102480004FF346C34EF345C34DF331DC0150FF0813
:1024900003E1FF0E016E44D048C34CF347C34BF336
:1024A00046C34AF345C349F30F0E0301506F4F690A
:1024B0004E694D6900011BDC0150FF0803E1FF0E6E
:1024C000016E2ED048C34CF347C34BF346C34AF3C7
:1024D00045C349F3A0DD0150FF0803E1FF0E016E83
:1024E0001FD040C303F03FC349F340C34AF348C37E
:1024F00077F347C376F346C375F345C374F300011E
:102500004BEC0BF04AC3EAFF49C3E9FF00C0EFFF01
:1025100001C0ECFF02C0ECFF03C0ECFF000E016E37
:10252000D4EF13F0190E03013325E96E000E3421A8
:10253000EA6EEFB208D0190E3325E96E000E342191
:10254000EA6EEFA459D1180E3325E96E000E34213E
:10255000EA6EEF52D8A450D1040E3325E96E000E76
:102560003421EA6EEFCF35F3ECCF36F3ECCF37F30F
:10257000ECCF38F3385102012B5DD8A081D016E1A1
:102580000301375102012A5DD8A07AD00FE103017F
:1025900036510201295DD8A073D008E1285103010A
:1025A000355DD8A002D002016BD00201020E0301FA
:1025B0004A6F300E496F000168DC0150FF0803E1EB
:1025C000FF0E016E1CD133C24CF332C24BF331C249
:1025D0004AF330C249F30F0E0301506F4F694E6941
:1025E0004D69000177EC0EF00150FF0803E1FF0E8A
:1025F000016E05D133C24CF332C24BF331C24AF300
:1026000030C249F308DD0150FF0803E1FF0E016EFF
:10261000F6D0040E03013325016E000E3421036E43
:1026200001C035F3366F140E3325016E000E3421D0
:10263000036E01C037F3386F33C277F332C276F3DB
:1026400031C275F330C274F300014BEC0BF038C3A8
:10265000EAFF37C3E9FF00C0EFFF01C0ECFF02C093
:10266000ECFF03C0ECFF36C3EAFF35C3E9FF00C04F
:10267000EFFF01C0ECFF02C0ECFF03C0ECFF020162
:1026800034C336F333C335F332C337F3000121D5F6
:102690000150FF0803E1FF0E016EB1D0040E0301EB
:1026A0003325016E000E3421036E01C035F3366F01
:1026B000386F01C037F30001B9DD0150FF08D8A41D
:1026C00079D0040E03013325E96E000E3421EA6E41
:1026D000EFCF35F3ECCF36F3ECCF37F3ECCF38F365
:1026E000200E355F000E365B375B385B010E3527F9
:1026F000000E3623372338231A0E3325016E000EC1
:102700003421036E01C039F33A6F38C37BF337C30A
:102710007AF336C379F335C378F37D6B200E7C6F83
:1027200003C07FF301C07EF3000134EC0EF00152D0
:102730000EE0190E03013325E96E000E3421EA6E16
:10274000EF504009EF6EFF0E016E000158D0040EED
:1027500003013325E96E000E3421EA6EEFCF42F318
:10276000ECCF43F3ECCF44F3ECCF45F30001A0EC06
:102770000AF003C03EF302C037F301C03CF300C0CF
:1027800035F3040E03013325016E000E3421036E70
:1027900001C039F33A6F02C03DF300C03BF3406F14
:1027A00001C03FF3000144D60150FF0803E1FF0ED2
:1027B000016E25D0100E03013325E96E000E342181
:1027C000EA6E010EEF24006E000EEC20016E000E8A
:1027D000EC20026E000EEC20ED52ED52ED5200C0E6
:1027E000EFFF01C0ECFF02C0ECFFEC6E32C301F062
:1027F000000105D004D00301FF0E016E00018CEF33
:1028000014F029C303F0030128C3E9FF29C3EAFF39
:10281000EFCF32F3ECCF33F3ECCF34F3ECCF35F32F
:10282000325311E133530FE134530DE135530BE1D2
:1028300027C333F326C332F3000104EF0FF0000E79
:10284000016ED7D10301190E2625E96E000E27214E
:10285000EA6EEFB208D0190E2625E96E000E272188
:10286000EA6EEFA466D0100E2625E96E000E272131
:10287000EA6EEFCF32F3ECCF33F3ECCF34F3ECCF9F
:1028800035F328C3E9FF29C3EAFFEFCF00F0ECCF0F
:1028900001F0ECCF02F0ECCF03F03551035C49E3DB
:1028A0000BE13451025C45E307E13351015C41E344
:1028B00003E10050325D3DE2100E2625E96E000E68
:1028C0002721EA6EEFCF32F3ECCF33F3ECCF34F3C2
:1028D000ECCF35F328C3E9FF29C3EAFFEFCF00F0BF
:1028E000ECCF01F0ECCF02F0ECCF03F03551035CFC
:1028F0001BE30BE13451025C17E307E13351015C48
:1029000013E303E10050325D0FE2326B27C334F36F
:1029100026C333F3000106D60150FF0803E1FF0E82
:10292000016E67D10301C8D7000E016E000161D1AD
:10293000030129C303F028C3E9FF29C3EAFFEFCF4E
:102940004AF3ECCF4BF3ECCF4CF3ECCF4DF3EACFA3
:1029500037F3E9CF36F3D892516B506B23C24FF364
:1029600022C24EF3000156EC0AF037C3EAFF36C329
:10297000E9FF03C031F302C030F301C02FF300C000
:102980002EF3140E03012625E96E000E2721EA6EB0
:10299000EFCF42F3ECCF43F3ECCF44F3ECCF45F36E
:1029A0000001A0EC0AF003C02DF302C02CF301C01B
:1029B0002BF300C02AF303012E5306E12F5304E149
:1029C000305302E1315314E0030E3E6F2A0E3D6F87
:1029D0000001CAEC0DF0015203E0FF0E016E09D1B7
:1029E000010E03012E5F000E2F5B305B315BE4D7DD
:1029F000040E2625016E000E2721036E01C032F35E
:102A0000336F2DC377F32CC376F32BC375F32AC32F
:102A100074F300014BEC0BF033C3EAFF32C3E9FF60
:102A200000C0EFFF01C0ECFF02C0ECFF03C0ECFFF1
:102A3000040E03012625016E000E272101C032F38A
:102A4000336FEA6E01C0E9FFEFCF34F3ECCF35F31B
:102A5000ECCF36F3ECCF37F329C303F028C3E9FFFB
:102A600029C3EAFFEFCF4AF3ECCF4BF3ECCF4CF3A3
:102A7000ECCF4DF3EACF3DF3E9CF3CF3D882030E20
:102A8000EA6E3E0EE96E516B506B23C24FF322C2C9
:102A90004EF3000156EC0AF03EC300F03FC301F0D4
:102AA00040C302F041C303F03DC3EAFF3CC3E9FF6A
:102AB000030134510026355101223651022237518B
:102AC000032233C3EAFF32C3E9FF00C0EFFF01C0B6
:102AD000ECFF02C0ECFF03C0ECFF190E2625E96EE7
:102AE000000E2721EA6EEFA063D0100E2625E96EB6
:102AF000000E2721EA6EEFCF34F3ECCF35F3ECCFA5
:102B000036F3ECCF37F328C3E9FF29C3EAFFEFCF51
:102B100000F0ECCF01F0ECCF02F0ECCF03F000506E
:102B2000345D006E01503559016E02503659026E07
:102B30000350375927C3EAFF26C3E9FF00C0EFFF60
:102B400001C0ECFF02C0ECFFEC6E040E2625E96E1E
:102B5000000E2721EA6EEFCF5FF3ECCF60F3ECCFEE
:102B600061F3ECCF62F31A0E2625016E000E2721C9
:102B7000036E01C036F3376F646B200E636F03C0C2
:102B800066F301C065F30001EAEC06F001520EE0C5
:102B9000190E03012625E96E000E2721EA6EEF507B
:102BA0002009EF6EFF0E016E000123D020D003013B
:102BB000100E2625016E000E272101C032F328C316
:102BC000E9FF29C3EAFFEFCF00F0ECCF01F0ECCF33
:102BD00002F0ECCF03F0EA6E32C3E9FF00C0EFFF72
:102BE00001C0ECFF02C0ECFF03C0ECFF0001000ECF
:102BF000016E1200030124C3E9FF25C3EAFFEFCFF2
:102C000026F3ECCF27F3ECCF28F3ECCF29F31F0EFC
:102C10002627000E272328232923030E386F260E8C
:102C2000376F000116EC11F00150FF0803E1FF0EB1
:102C3000016E0FD0030124C3E9FF25C3EAFF26C3B9
:102C4000EFFF27C3ECFF28C3ECFF29C3ECFF000E06
:102C5000016E00019EEF19F00201FF6B140EFB25BF
:102C6000E96E000EFC21EA6EEFCF00F3ECCF01F32A
:102C7000ECCF02F3ECCF03F303C362F302C361F3BF
:102C800001C360F300C35FF30301646B010E636F64
:102C9000020E666FFE0E656F0001EAEC06F0015051
:102CA0000201FF270B0E03010025246F000E0121F6
:102CB000256F000E0221266F000E0321276F626F21
:102CC00026C361F325C360F324C35FF3646B010E75
:102CD000636F020E666FFD0E656F0001EAEC06F091
:102CE00001500201FF27FF530CE0190EFB25E96E8E
:102CF000000EFC21EA6EEF502009EF6EFF0E016E10
:102D000034D3FE51E508D8B412D3FA51FD5DD8A4EE
:102D10000ED303C327F302C326F301C325F300C375
:102D200024F3030E0301296F040E286F0001CEEF78
:102D30000CF00150FF0805E1FF0E016E020115D3F2
:102D40000001F9C225F3F8C224F3030E0301276F33
:102D5000040E266F00018DEF0DF00152D8A4E8D2C9
:102D60000C0E0201FB25016E000EFC21036E01C05A
:102D700024F30301256F140E0201FB25E96E000EFA
:102D8000FC21EA6EEFCF00F0ECCF01F0ECCF02F0C7
:102D9000ECCF03F025C3EAFF24C3E9FF00C0EFFF37
:102DA00001C0ECFF02C0ECFF03C0ECFF1C0E0301EE
:102DB0000025246F000E0121256F000E0221266FD1
:102DC000000E0321276F100E0201FB25016E000E7D
:102DD000FC21036E01C028F30301296F27C362F3AE
:102DE00026C361F325C360F324C35FF3646B040E51
:102DF000636F03C066F301C065F30001EAEC06F0FF
:102E000001500201FF27140E03010025246F000E5C
:102E10000121256F000E0221266F000E0321276F6E
:102E2000140E0201FB25016E000EFC21036E01C091
:102E300028F30301296F020E2827000E292327C338
:102E400062F326C361F325C360F324C35FF3646BAD
:102E5000020E636F29C366F328C365F30001EAEC31
:102E600006F001500201FF271A0E03010025246F0E
:102E7000000E0121256F000E0221266F000E032196
:102E8000276F140E0201FB25016E000EFC21036E5C
:102E900001C028F30301296F27C362F326C361F33E
:102EA00025C360F324C35FF3646B020E636F03C03A
:102EB00066F301C065F30001EAEC06F0015002017F
:102EC000FF27FF530CE0190EFB25E96E000EFC21D5
:102ED000EA6EEF502009EF6EFF0E016E46D2140E1F
:102EE000FB25016E000EFC21036E01C024F30301DB
:102EF000256F140E0201FB25E96E000EFC21EA6E1F
:102F0000EFCF74F3ECCF75F3ECCF76F3ECCF77F330
:102F100000014BEC0BF025C3EAFF24C3E9FF00C01E
:102F2000EFFF01C0ECFF02C0ECFF03C0ECFF080E96
:102F30000201FB25E96E000EFC21EA6E00C3EFFFE3
:102F400001C3ECFF02C3ECFF03C3ECFF100E020150
:102F5000FB25E96E000EFC21EA6EEFCF00F0ECCF0E
:102F600001F0ECCF02F0ECCF03F0FCC2EAFFFBC2B1
:102F7000E9FF00C0EFFF01C0ECFF02C0ECFF03C09F
:102F8000ECFFFA512008D8A4C7D1180EFB25E96E32
:102F9000000EFC21EA6EEF6A190EFB25E96E000EA9
:102FA000FC21EA6EEFA27DD0100E0201FB25E96E36
:102FB000000EFC21EA6EEE52EE52EC6AED52EF6A20
:102FC000ED52EF6AED52EF6A000EFCC2EAFFFBC25F
:102FD000E9FF00C0EFFFFBC2ECFF02C0ECFFFCC248
:102FE000ECFF140EFB25E96E000EFC21EA6EEFCF1C
:102FF00024F3ECCF25F3ECCF26F3ECCF27F32B51C2
:103000000301275D3EE311E102012A510301265D20
:1030100038E30BE1020129510301255D32E305E1AB
:10302000020128510301245D2CE3140E0201FB254B
:10303000E96E000EFC21EA6EEFCF42F3ECCF43F3D2
:10304000ECCF44F3ECCF45F30001A0EC0AF003C051
:1030500027F302C026F301C025F300C024F303C008
:103060002BF302C02AF301C029F300C028F3AFEF0D
:103070000EF00150FF0804E1FF0E016E020175D150
:103080000301040E0201FB25E96E000EFC21EA6E2D
:10309000EE52EE52EC6AED52EF6AED52EF6AED52EB
:1030A000EF6A190EFB25E96E000EFC21EA6EEFA413
:1030B000D2D0100EFB25E96E000EFC21EA6EEFCF98
:1030C00024F3ECCF25F3ECCF26F3ECCF27F3030169
:1030D000245309E1255307E1265305E12753D8A4DA
:1030E00002D00201B8D0100E0201FB25016E000EC5
:1030F000FC21036E01C024F30301256FFCC227F3FA
:10310000FBC226F3296F01C028F3000101EC14F083
:1031100001C0FFF2040E0201FB25E96E000EFC2146
:10312000EA6EEFCF24F3ECCF25F3ECCF26F3ECCF10
:1031300027F31F0E03012417256B266B276B2453DF
:103140003EE125533CE126533AE1275338E1040E92
:103150000201FB25E96E000EFC21EA6EEFCF24F39D
:10316000ECCF25F3ECCF26F3ECCF27F3200E0301B1
:10317000245F000E255B265B275B1A0E0201FB25F0
:10318000016E000EFC21036E01C028F30301296FBC
:1031900027C362F326C361F325C360F324C35FF33F
:1031A000646B200E636F03C066F301C065F300011A
:1031B000EAEC06F001500201FF274DD00301040E96
:1031C0000201FB25E96E000EFC21EA6EEFCF24F32D
:1031D000ECCF25F3ECCF26F3ECCF27F3040EFB2541
:1031E000E96E000EFC21EA6EEFCF28F3ECCF29F355
:1031F000ECCF2AF3ECCF2BF3030128511F0B006E09
:10320000016A026A036A0050245F0150255B025084
:10321000265B0350275B1A0E0201FB25016E000E90
:10322000FC21036E01C028F30301296F27C362F359
:1032300026C361F325C360F324C35FF3646B200EE0
:10324000636F03C066F301C065F30001EAEC06F0AA
:1032500001500201FF27190EFB25E96E000EFC212B
:10326000EA6EEFA04AD0040EFB25016E000EFC2191
:10327000036E01C024F30301256F140E0201FB2528
:10328000E96E000EFC21EA6EEFCF00F0ECCF01F00A
:10329000ECCF02F0ECCF03F025C3EAFF24C3E9FF33
:1032A00000C0EFFF01C0ECFF02C0ECFF03C0ECFF69
:1032B000040EFB25E96E000EFC21EA6EEFCF5FF3F2
:1032C000ECCF60F3ECCF61F3ECCF62F31A0EFB2589
:1032D000016E000EFC21036E01C028F30301296F6B
:1032E000646B200E636F03C066F301C065F30001D9
:1032F000EAEC06F001C0FFF20201FF530CE0190EE8
:10330000FB25E96E000EFC21EA6EEF502009EF6EFE
:10331000FF0E016E2AD008D0180EFB25E96E000EB4
:10332000FC21EA6E010EEF6E000E016E1ED0000150
:10333000030E0301256F246B00015CD40150FF08CC
:1033400005E1FF0E016E020110D000010201FE53E3
:10335000D8A492D4190EFB25E96E000EFC21EA6E6A
:10336000EF508009EF6EFF0E016E00011200010E9A
:1033700002019B6FF66B9751E96E9851EA6EEF5020
:10338000720A000105E0050A07E0160A09E00DD0FF
:10339000010E0201D56F0DD0020E0201D56F09D0CA
:1033A000040E0201D56F05D00001FF0E016E14D18D
:1033B0000201010E9725E96E000E9821EA6EEF508A
:1033C000620801E1D58737C2CBF236C2CAF235C2F4
:1033D000C9F234C2C8F2CBC2D3F2CAC2D2F2C9C255
:1033E000D1F2C8C2D0F29B519525E96E000E96210C
:1033F000EA6EEF520DE09B519525E96E000E962185
:10340000EA6EEF502F0801E1F62B010E9B27EBD758
:10341000010E9B6FF65362E0F76B9B519525E96EA9
:10342000000E9621EA6EEF502F0825E09B5195255E
:10343000E96E000E9621EA6EEF5205E1FF0E016E75
:103440000001CAD00201036AF7519C0F016E020EFF
:1034500003229B519525E96E000E9621EA6EEFCF6F
:10346000FAF203C0EAFF01C0E9FFFAC2EFFF010E62
:103470009B27F727D2D7010E9B27036AF7519C0F92
:10348000E96E020E0320EA6EEF6A020EF96F9C0EDF
:10349000F86F100EFA6F020EFC6FBC0EFB6F00018E
:1034A0002CEC16F0015216E00201D58F9AC203F0FF
:1034B00099C2E9FF9AC2EAFF020EE26EBC0EE16E0B
:1034C0003A0E016EE6CFEEFF012EFCD7FF0E016E25
:1034D000000182D0010E0201F65F9CD79B51952519
:1034E000E96E000E9621EA6EEF5215E19AC203F0E2
:1034F00099C2E9FF9AC2EAFF020EE26EBC0EE16ECB
:103500003A0E016EE6CFEEFF012EFCD7000E016EE3
:10351000000162D00201F76B9B519525E96E000E08
:103520009621EA6EEF5218E0036AF7519C0F016E84
:10353000020E03229B519525E96E000E9621EA6E3C
:10354000EFCFFAF203C0EAFF01C0E9FFFAC2EFFFD2
:10355000010E9B27F727E0D7036AF7519C0FE96E0E
:10356000020E0320EA6EEF6A020EF96F9C0EF86FEE
:10357000200EFA6F020EFC6FBC0EFB6F00012CECEC
:1035800016F0015216E00201D58F9AC203F099C2DB
:10359000E9FF9AC2EAFF020EE26EBC0EE16E3A0E3D
:1035A000016EE6CFEEFF012EFCD7FF0E016E00018B
:1035B00013D09AC203F0020199C2E9FF9AC2EAFF4E
:1035C000020EE26EBC0EE16E3A0E016EE6CFEEFF29
:1035D000012EFCD7000E016E0001F0EF1EF002017B
:1035E000936B976B966B956B946B080E9125E96EB8
:1035F000000E9221EA6EEFCF98F2ECCF99F2ECCF69
:103600009AF2ECCF9BF21C0E9827000E99239A2376
:103610009B239BC262F39AC261F399C260F398C282
:103620005FF30301646B040E636F020E666F940E0A
:10363000656F0001EAEC06F001500201932794C285
:1036400000F095C201F096C202F097C203F00001AB
:1036500011EF1FF0190E02019125E96E000E922163
:10366000EA6EEFB208D0190E9125E96E000E922194
:10367000EA6EEFA4B8D0040E9125E96E000E9221F7
:10368000EA6EEFCF93F2ECCF94F2ECCF95F2ECCF61
:1036900096F21F0E9317946B956B966B935348E1BC
:1036A000945346E1955344E1965342E1040E91252B
:1036B000E96E000E9221EA6EEFCF93F2ECCF94F216
:1036C000ECCF95F2ECCF96F2200E935F000E945B58
:1036D000955B965B1A0E9125016E000E9221036E8A
:1036E00001C097F2986F96C27BF395C27AF394C2A9
:1036F00079F393C278F303017D6B200E7C6F03C0D6
:103700007FF301C07EF3000134EC0EF001520EE0B5
:10371000190E02019125E96E000E9221EA6EEF501A
:103720004009EF6EFF0E016E60D0000157D002011C
:10373000040E9125E96E000E9221EA6EEFCF93F20E
:10374000ECCF94F2ECCF95F2ECCF96F2040E9125EB
:10375000E96E000E9221EA6EEFCF97F2ECCF98F26D
:10376000ECCF99F2ECCF9AF297511F0B006E016AE1
:10377000026A036A0050935F0150945B0250955BAC
:103780000350965B1A0E9125016E000E9221036E76
:1037900001C097F2986F96C27BF395C27AF394C2F8
:1037A00079F393C278F303017D6B200E7C6F03C025
:1037B0007FF301C07EF3000134EC0EF001520EE005
:1037C000190E02019125E96E000E9221EA6EEF506A
:1037D0004009EF6EFF0E016E08D000014FEC06F0BD
:1037E0000150020102D0000E016E000120EF1FF017
:1037F00002019751000A000105E0010A30E0030AC6
:103800005BE074D0040E02019125E96E000E922156
:10381000EA6EEFCF9CF2ECCF9DF2ECCF9EF2ECCFB4
:103820009FF293519C25986F94519D21996F9551CA
:103830009E219A6F96519F219B6F92C227F391C24E
:1038400026F3020E0301296F980E286F000101EC88
:1038500014F0015203E0FF0E016E58D04AD0100E52
:1038600002019125E96E000E9221EA6EEFCF9CF2E3
:10387000ECCF9DF2ECCF9EF2ECCF9FF293519C5D8A
:10388000986F94519D59996F95519E599A6F965181
:103890009F599B6F92C227F391C226F3020E030138
:1038A000296F980E286F000101EC14F0015203E01B
:1038B000FF0E016E2BD01DD096C29BF295C29AF2DC
:1038C00094C299F293C298F292C227F391C226F35E
:1038D000020E0301296F980E286F000101EC14F00D
:1038E000015203E0FF0E016E11D003D0FF0E016EF6
:1038F0000DD0190E02019125E96E000E9221EA6E9B
:10390000EF50EF0BEF6E000E016E00011200040E7F
:1039100002019425E96E000E9521EA6EEFCF99F22F
:10392000ECCF9AF2ECCF9BF2ECCF9CF21F0E9917E2
:103930009A6B9B6B9C6B995337E19A5335E19B5380
:1039400033E19C5331E1040E9425E96E000E95217C
:10395000EA6EEFCF5FF3ECCF60F3ECCF61F3ECCF27
:1039600062F31A0E9425016E000E9521036E01C0BC
:103970009DF29E6F0301646B200E636F03C066F3BC
:1039800001C065F30001EAEC06F001520EE0190EE9
:1039900002019425E96E000E9521EA6EEF50200990
:1039A000EF6EFF0E016E32D0000102011A0E942557
:1039B000E96E000E9521EA6EEFCF9BF297C2EAFF07
:1039C00096C2E9FF9BC2EFFF986B985107081CE372
:1039D0001A0E9425016E000E9521036E01C099F216
:1039E0009A6F200E006E03C0EAFF01C0E9FFEFCF1F
:1039F00003F01F0EE926000EEA220330ED32002EFE
:103A0000FDD7010E9827E1D7000E016E00013CEFB3
:103A10001DF0190E02019125E96E000E9221EA6E49
:103A2000EFA07ED091C2E9FF92C2EAFFEFCF94F2FD
:103A3000ECCF95F2ECCF96F2ECCF97F2945312E1E3
:103A4000955310E196530EE197530CE1190E912511
:103A5000E96E000E9221EA6EEF501009EF6EFF0E34
:103A6000016E60D092C295F291C294F2020E976FED
:103A7000930E966F00014BD70150FF0805E1FF0E32
:103A8000016E02014FD000010201935314E1190E9F
:103A90009125E96E000E9221EA6EEFB60CD0190E58
:103AA0009125E96E000E9221EA6EEF501009EF6E3B
:103AB000FF0E016E37D0040E9125016E000E92218B
:103AC000036E01C094F2956FE8CF38F301C037F36D
:103AD000000116EC11F0015205E0FF0E016E02012B
:103AE00021D00001020191C2E9FF92C2EAFF010E5A
:103AF000EF5C006E000EEC58016E000EEC58026E8A
:103B0000000EEC58ED52ED52ED5200C0EFFF01C037
:103B1000ECFF02C0ECFFEC6E93C201F003D002D0C8
:103B2000FF0E016E000190EF1FF002019851016A33
:103B3000975D03E297C200F00CD0006A080E996FFF
:103B4000973700369851005CD8B0006E0136992F37
:103B5000F7D700011200200E020192A9300E936FD8
:103B600091C200F091AF08D0001E002A00C091F26F
:103B70002D0E936F928F9281015091C297F2640E35
:103B8000986F0001D2DF00C091F2300E01240201D3
:103B9000946F91C297F20A0E986F0001C6DF300E43
:103BA00000240201966F300E0124956F93C200F03D
:103BB000300E945D04E0928392BF928512D093C23E
:103BC00094F2200E936F300E955D04E0928192BFC7
:103BD000928307D0D8A4928104E194C295F2200E7A
:103BE000946F92B505D092B30FD092B119D024D072
:103BF000196AF2BE198EF29E93C2C2F300019EECC6
:103C000001F019BEF28E0201196AF2BE198EF29EFF
:103C100094C2C2F300019EEC01F019BEF28E0201C3
:103C2000196AF2BE198EF29E95C2C2F300019EEC93
:103C300001F019BEF28E0201196AF2BE198EF29ECF
:103C400096C2C2F300019EEC01F019BEF28EFBEFAA
:103C50001FF0F86AD09E078E949A8B8A3F0ECB6E27
:103C6000040ECA6E9494B76AB66A200EBE6E0C0E2D
:103C7000BD6E8C888C880201396B386B426B446B4B
:103C8000436B486B476B466B456BC150C00B0F09CC
:103C9000C16E070EB46E206B216BC150C00B0F09B3
:103CA000C16EF18CF292F288C00EF212020E916F88
:103CB000196AF2BE198EF29EFA0E0301C36F00015B
:103CC00089EC01F019BEF28E0201912FF1D70C0E92
:103CD000BD12020E916F196AF2BE198EF29EFA0E93
:103CE0000301C36F000189EC01F019BEF28E0201DD
:103CF000912FF1D70001B6EF02F0196AF2BE198ECA
:103D0000F29E0C0E0301C26F00019EEC01F019BE81
:103D1000F28E92948984020E0201916F196AF2BEAA
:103D2000198EF29EFA0E0301C36F000189EC01F0B7
:103D300019BEF28E0201912FF1D700016EEF07F04C
:103D400001C03EF2016A026A036A03C041F202C086
:103D500040F201C03FF202013E53D8A49ED13F532E
:103D6000D8A49BD14053D8A498D14153D8A495D17D
:103D700092928982196AF2BE198EF29E010E030197
:103D8000C36FC46F000176EC01F019BEF28E180EFD
:103D9000F66E050EF76E85EC09F0020EEA6E870EE0
:103DA000E96E080E016EF76A000E61EC00F00A0081
:103DB0000900F5CFEEFF012EFBD7720E02018F6FC7
:103DC000906B020E966F870E956F020E986F8F0E96
:103DD000976F020E9A6F4D0E996F0001B7EF19F0B1
:103DE0000152D8A444D1196AF2BE198EF29E010E76
:103DF0000301C36F020EC46F000176EC01F019BE1F
:103E0000F28E220EF66E050EF76E85EC09F092909A
:103E10008980020E0201926F4D0E916F0001EFEF4B
:103E20001AF003C048F202C047F201C046F200C0D7
:103E300045F2020E0201926F4D0E916F00010AD4FD
:103E4000020E0201926F4D0E916F966B956B030EF1
:103E5000946FE80E936F020E976F0001C9DCD89241
:103E600048C24DF347C24CF346C24BF345C24AF336
:103E70000301516B506B4F6B640E4E6F000156EC9B
:103E80000AF003C04CF202C04BF201C04AF200C07B
:103E900049F2196AF2BE198EF29E010E0301C36F38
:103EA000C46F000176EC01F019BEF28E2E0EF66E94
:103EB000050EF76E85EC09F0196AF2BE198EF29EB6
:103EC000010E0301C36F020EC46F000176EC01F016
:103ED00019BEF28E400EF66E050EF76E85EC09F0F7
:103EE0009290898002013D6B3C6B3B6B3A6B3D517C
:103EF000485DD8A0BAD00EE13C51475DD8A0B5D0FE
:103F000009E13B51465DD8A0B0D004E13A51455D8E
:103F1000D8A0ABD0020E926F4D0E916F000179D5F3
:103F20000201926B01C091F292339133923391333B
:103F3000923391C2BEFF92339231300B006EBD506E
:103F4000CF0B0010BD6ED882020EEA6E910EE96EA4
:103F50003DC24DF33CC24CF33BC24BF33AC24AF371
:103F60004CC251F34BC250F34AC24FF349C24EF315
:103F7000000156EC0AF094C298F293C297F292C2F2
:103F800096F291C295F2020195534EE196534CE19F
:103F900097534AE1985348E1010E4227196AF2BE4D
:103FA000198EF29E010E0301C36F020EC46F000151
:103FB00076EC01F019BEF28E196AF2BE198EF29EED
:103FC000250E0301C26F00019EEC01F019BEF28EB6
:103FD000196AF2BE198EF29E200E0301C26F000113
:103FE0009EEC01F019BEF28E42C291F2180E02014F
:103FF000926F0001B0D5196AF2BE198EF29E200EA2
:104000000301C26F00019EEC01F019BEF28E196A25
:10401000F2BE198EF29E200E0301C26F00019EECCB
:1040200001F019BEF28E02014251620815E23D6BA9
:104030003C6B3B6B3A6B020E926F4D0E916F966B21
:10404000956B030E946FE80E936F020E976F00014D
:10405000F8EC1BF00201426B010E3A27D8B03B2B63
:10406000D8B43C2BD8B43D2B42D716D00001196AE6
:10407000F2BE198EF29E010E0301C36F020EC46FD1
:10408000000176EC01F019BEF28E520EF66E050EAE
:10409000F76E85EC09F0020114D0196AF2BE198E90
:1040A000F29E010E0301C36FC46F000176EC01F0B4
:1040B00019BEF28E600EF66E050EF76E85EC09F0F5
:0440C00002010300F6
:020000040030CA
:0E00000021CE3E1E0085A1000FC00FE00F4074
:00000001FF
;PIC18F4550
;CRC=401F  CREATED="21-Jan-19 11:45"
